:020000040800F2
:10000000880D002035020008FB460008153C00085A
:10001000F94600085D1D00081552000800000000A8
:100020000000000000000000000000007D48000803
:10003000471E000800000000FD460008FD480008BB
:100040004F0200084F0200084F0200084F0200084C
:100050004F0200084F0200084F0200084F0200083C
:100060004F0200084F0200084F0200084F0200082C
:10007000111E00084F0200084F0200084F0200083E
:100080004F0200084F0200084F0200084F0200080C
:100090004F0200084F0200084F0200084F020008FC
:1000A0004F0200084F0200084F0200084F020008EC
:1000B0004F020008614900084F0200084F02000883
:1000C0004F0200084F0200084F0200084F020008CC
:1000D0004F0200084F0200084F02000809520008B2
:1000E0004F0200084F0200084F02000800F002F81B
:1000F00000F090F80AA090E8000C82448344AAF132
:100100000107DA4501D100F085F8AFF2090EBAE82F
:100110000F0013F0010F18BFFB1A43F0010318473B
:10012000D07C0000F07C0000103A24BF78C878C171
:10013000FAD8520724BF30C830C144BF04680C60ED
:10014000704700000023002400250026103A28BF35
:1001500078C1FBD8520728BF30C148BF0B60704739
:100160006E2900F09981702900F0E382662907F07A
:100170000A85652907F00785672907F00485612945
:1001800007F0038503681B0A28BF41F08001692935
:1001900000F04681642900F04381752900F0408118
:1001A0006F2900F07082782900F0AF82E92900F011
:1001B0000B82E42900F00882F52900F00582EF297E
:1001C00000F06D82F82900F0AE820368DB0928BFD9
:1001D00041F08001632900F0D787732900F0DC87A4
:1001E000E32900F0E787F32900F0EC87002070474F
:1001F0001FB501F05BF804000020002106F086FC2A
:10020000401C60600020002106F06AFCE0601FBD19
:1002100010B510BD01F01CF81146FFF7E9FF06F01C
:100220004DF801F0F9F803B4FFF7F2FF03BC01F059
:100230003DF900000948804709480047FEE7FEE70E
:10024000FEE7FEE7FEE7FEE7FEE7FEE7FEE7FEE786
:1002500004480549054A064B704700005F490008FD
:10026000ED00000888070020880D00208809002084
:10027000880900207CB51D4616460C00009001D070
:100280002044401E074B7B442A4669460190304675
:1002900000F01BF905461CB10020694600F028F962
:1002A00028467CBD71020000014A00F011BB00002D
:1002B0001801002010B5431C02E010F8011B71B1B9
:1002C0008107FAD14FF0013202C88C1A8C4314EA2C
:1002D000C211F9D0C01A0A0603D0C01E10BDC01A40
:1002E00010BD0A0401D0801E10BD0902FCD0401EC2
:1002F00010BD4FF0000200B51346944696462039D3
:1003000022BFA0E80C50A0E80C50B1F12001BFF4CE
:10031000F7AF090728BFA0E80C5048BF0CC05DF834
:1003200004EB890028BF40F8042B08BF704748BF82
:1003300020F8022B11F0804F18BF00F8012B7047F6
:1003400070477047704710B500F0E4FA006810BDC0
:1003500010B5044600F0DEFA046010BD70B5044626
:1003600085690068C10601D5302600E02026C00757
:1003700007D070BDD4E9012130469047206A401C67
:1003800020626D1EF6D570BD70B504468569007893
:10039000C00707D170BDD4E9012120209047206A11
:1003A000401C20626D1EF6D570BD09684A0501D556
:1003B00040B27047C905FCD500B2704709684A05CC
:1003C00001D5C0B27047C905FCD580B2704770B581
:1003D0000C460546012A05D02878800600D5EA6932
:1003E000002302E0012305E05B1C934202D2E05CA3
:1003F0000028F9D1A869E618C01AA861286A18442B
:1004000028622846FFF7AAFF04E0D5E9012114F885
:10041000010B9047B442F8D32846FFF7B5FF70BDF3
:100420002DE9F0410646002410687529314616A5CD
:1004300010D0FFF7BAFF002802DA404213A507E008
:1004400031688A0701D512A502E0490704D511A534
:10045000012401E0FFF7B2FF00210A2206F1240780
:1004600009E0B0FBF2FCB0FBF2F302FB1C00303001
:1004700078541846491C0028F3D123462A463046B2
:10048000BDE8F04100F08FBA000000002D00000030
:100490002B0000002000000011680268006A53056C
:1004A00001D508700AE0D30501D5088006E01306DF
:1004B00003D5C217C1E9000200E0086001207047BF
:1004C00001694A1C02610878704700B58FB0CDE918
:1004D00001310021059105497944CDE90310114608
:1004E000684600F031F90FB000BD0000E5FFFFFFE6
:1004F0000A6802F8010B0A607047D1E900239A42AA
:1005000002D2531C0B601070704700002DE9FF5F92
:1005100015468A460446DFF8AC80F8440027D8E93F
:1005200000103E46CDE9001010E03AF816106A4679
:1005300002A800F04BFE411C07D02178890603D5A4
:10054000E269391891420DD80744761C207880065C
:1005500002D5E069B84205DDAE42E6DB3AF81600A6
:100560000028E2D1A069C01BA0612046FFF7F6FE7B
:10057000D8E90010CDE90010002017E03AF8181073
:100580006A4602A800F022FEB0F1FF3F81460BD080
:1005900000250DF1080B05E0D4E901211BF8050049
:1005A00090476D1C4D45F7D308F10100B0428046DD
:1005B000E4DB206A384420622046FFF7E5FEBDE810
:1005C000FF9F0000D67700002DE9F0418046D21D44
:1005D00022F007020025D2E90002F52915A614D061
:1005E000011E72F1000106DA0023D0EB030063EB79
:1005F000020211A608E0D8F800108B0701D50FA65B
:1006000002E0490701D50EA601251146002408F194
:10061000240704E000F082F930323A55641C50EAB5
:100620000102F7D12B46324621464046BDE8F04153
:1006300000F0B9B9000000002D0000002B00000000
:100640002000000030B4002100F1240408E002F092
:100650000705D208303542EA4372DB086554491C6D
:1006600052EA0305F3D10468002310A2250707D539
:10067000A40600D421B1C46901230DA2641EC46183
:1006800030BC00F090B910B5044621461068FFF761
:1006900095FE02462046BDE810400023D2E7D21D59
:1006A00022F00701D1E90023CCE7000000000000A0
:1006B00030000000F0B40D460188090502D5214C38
:1006C0007C4402E01F4C7C440E34002100F12406DF
:1006D00008E002F00F071209E75D42EA03721B0906
:1006E0007754491C52EA0307F3D10278002312071A
:1006F00004D5702D06D009B1022311342246F0BC76
:1007000000F051B901231034F8E770B504460D46E6
:1007100021461068FFF752FE024629462046BDE8F2
:1007200070400023C6E7D21D22F00703D3E900235F
:10073000C0E70368126843F0200303600823C36125
:100740000023B7E7387600002DE9F05F89460446BC
:100750004FF0000ADFF874B1FB44C0F820A0204637
:10076000E1688847002874D0252806D0D4E9012103
:100770009047206A401C2062F1E700265F46204631
:10078000E16888472028054607DB312D05D2781916
:1007900010F8200C08B10643F1E7B00701D526F0A8
:1007A0000406C4F81CA00027C4F818A02A2D09D0FC
:1007B000284604F071FD38B304EB8708303DC8F8D3
:1007C000185019E059F8041B204604EB8702916188
:1007D000E1688847012F054618D1E069002820DA32
:1007E00026F020061DE0D8F8180000EB800005EB8D
:1007F00040003038C8F818002046E16888470546B0
:1008000004F04AFD0028EED1012F0AD02E2D08D188
:100810002046E16888477F1C0546022F46F02006E7
:10082000C4DBA069002803DA404246F00106A0615B
:10083000F00701D026F010066C2D0BD0682D09D0E2
:100840004C2D39D06A2D35D0742D35D07A2D33D03A
:1008500016E038E0E1682F4620468847B842054652
:1008600009D16C2F26D04FF48060E1680643204602
:100870008847054604E06C2F1AD04FF48070064379
:100880000DB3A5F14100192802D8203546F40066C1
:100890004A462946204626604E46FFF761FC80B155
:1008A00001280BD0F61D26F0070000F1080956E7D5
:1008B0004020E4E78020D8E70020D6E706F10409CD
:1008C0004DE7284652E7206ABDE8F09FC875000052
:1008D0002DE9F04115460E46040002D12C6804B9FA
:1008E0000BA4204600F0A2FC0444207870B12746F7
:1008F0003146384600F08AFC0444207810B10020CC
:1009000004F8010B38462C60BDE8F0810027F9E7B8
:1009100000000000004870472407002030B5B0F107
:100920000A024FEA900E71F100034EEA817EB0EBAD
:100930000E0061EB91014FEA101E4EEA017E10EBB2
:100940000E0041EB11114FEA102E4EEA016E10EB32
:100950000E0041EB11214FEA104E4EEA014E10EB12
:100960000E0041EB1141401841F100014FEAD00067
:1009700040EA41704FEAD10110EB80054FEA810453
:1009800044EA907444EB01046D1944EB0404521BD7
:10099000A3414FF0000348BF0A3200D530BD401CD0
:1009A00041F1000130BD2DE9F0470D4699469246D0
:1009B000044600F124080168880604D5E06921F0A6
:1009C0001001216000E00120A84201DD471B00E08A
:1009D0000027A1697A1902EB0900081AA0612078A2
:1009E000C00602D42046FFF7B9FC002608E0D4E98F
:1009F00001211AF806009047206A401C761C2062EC
:100A00004E45F4DB2078C0060AD52046FFF7A6FC49
:100A100006E0D4E9012130209047206A401C206282
:100A2000381EA7F10107F4DC07E0D4E9012118F82A
:100A300005009047206A401C2062281EA5F1010590
:100A4000F3DC2046FFF7A0FC2078000602D5022048
:100A5000BDE8F0870120FBE770472DE9FF4F0C460A
:100A60001E464FF0FF378BB0D2E90001DDF8608001
:100A70000A908A46C1F30A5505B93D460021084649
:100A80004FF00000BAF1000F00F4400005DA00EB6F
:100A900080004FF4400101EA50004FEA9059B9F14B
:100AA000010F00DDB9460A9850EA4A000ED044F61C
:100AB0001050A5F2FF3545432F14B8F1000F1ED09A
:100AC0007542291E1EDDC9F100021CE0B8F1010FBC
:100AD0004FF0000001D0302103E0F24305E0215443
:100AE000401CB042FBDB30460022002121540B9910
:100AF000C1F80880C1E900200FB0BDE8F08FBD1B30
:100B00006D1CDEE74A4600DA694206A800F012FCD6
:100B100006AB93E8070003AB83E8070050460A9949
:100B200000F0CBFC8DE80700A0F500501F380090C6
:100B30000398002D0ADD42F21F014A4608440023B3
:100B400003A90390684600F034FF09E0A0F50050C7
:100B50004A461F38002303A90390684600F03EFF71
:100B60008DE807000004000C03D04FF0FF3041086F
:100B700000E01046B8F1000F03D0002200921546A5
:100B80001EE0751E05D4FFF7C9FE303262556D1E9A
:100B9000F9D5B3460122084302D000227F1C04E0AD
:100BA0002078302801D100227F1E002A099784D0A6
:100BB0001DE0112D07DAFFF7B1FE303262556D1CD2
:100BC00050EA0102F5D1084302D00098C8B10EE006
:100BD0000021681E05E0235C625C63542254401EC1
:100BE000491C8142F7DBAB46A81B401E0990002040
:100BF00004F80B000B98099AC0F80880C0E9002B94
:100C00007AE711264FF0000857E72DE9F04F8846A4
:100C10000446D21D22F0070191B0D1E90001CDE9CF
:100C20000A0104F0F8FA02460B98C00F01D02D20FB
:100C300007E02068810701D52B2002E0202101EA8E
:100C4000C000032A099001D0072A05DB034641466C
:100C5000204600F02FFB0BE12078800601D5E069EB
:100C600000E00620B8F1650F814606D0B8F1660FA6
:100C700018D0B8F1670F70D131E00020B9F1110F31
:100C8000009001DB112301E009F101030AAA01A987
:100C90000CA8FFF7E2FEDDE90C70002609F1010562
:100CA000834647E001204B4600904FF000470AAAD8
:100CB00001A90CA8FFF7D1FEDDE90DB00C995D4646
:100CC000002610B909F101000D18B9EB050003D495
:100CD000C0F1FF3609F10105A5EB09002BE0B9F1E0
:100CE000010F01DA4FF001090020B9F1110F009056
:100CF000484601DD112300E003460AAA01A90CA819
:100D0000FFF7ABFEDDE90C704D46002683462078E8
:100D100000070AD4AB4500DA5D4601A8012D04DDC9
:100D2000411911F8011C302907D04F4502DA17F19B
:100D3000040F04DA012082460FE06D1EEEE7002F5B
:100D400002DCED1B3E4403E0781CA84200DD7D1C64
:100D5000B81B00F1010A4FF000472078000703D4C8
:100D6000AA4501DB4FF0FF3A0021B7F1004F0DF12A
:100D700043088DF8431024D002202B23002F01DAE2
:100D80007F422D230A21021EA0F1010000DC5FB189
:100D900097FBF1FC97FBF1F201FB1C7C17460CF171
:100DA000300C08F801CDEEE7A8F1010003702188AE
:100DB000090501D5452100E06521A0F1010800F8F1
:100DC000011C09980FA9A1EB0807FF1D00B1012024
:100DD000411901EBEA70A1693844081A401EA0616C
:100DE0002078C00602D42046FFF7B8FA099828B147
:100DF000D4E901219047206A401C20622078C00677
:100E000022D52046FFF7AAFA1EE0002E04DBB345E8
:100E100002DD01A8805D00E03020D4E90121904787
:100E2000206A401C2062761CAAF101005FEA000AD9
:100E30000AD100F03BFAC0680168405CD4E90121A6
:100E40009047206A401C2062281EA5F10105DCDCC9
:100E500007E0D4E9012118F8010B9047206A401CF3
:100E60002062381EA7F10107F3DC2046FFF78CFA59
:100E7000032011B041E600002DE9F04F04460D4675
:100E8000D21D22F0070089B0D0E9009748463946C4
:100E900004F0C1F90246F80F01D02D2307E02068C5
:100EA000810701D52B2302E0202101EAC0038DF840
:100EB00020300BB1012000E00020032A824601D03F
:100EC000072A04DB2946204600F0F4F93FE12078A8
:100ED000800601D40D2500E0E569C7F30A560D2D03
:100EE00049DA00214FEA175B08464FF00000002F57
:100EF00000F4400007DA00EB80004FF4400100EB03
:100F0000D07001EA60008115012901DD4FF0FF3149
:100F100000224FEA850CBCF1180F06D31346ACF142
:100F200018004FF08052C24003E04FF4801323FAC0
:100F30000CF30CF10C0CBCF1200F04D3ACF1200C21
:100F400009FA0CF001E007FA0CF000294FF0004814
:100F500001DD18B90FE00ED140450CD319EB0209A1
:100F60005F4121B9404502D19F4329EA0209BBEB09
:100F7000175F00D0761C2088000502D57B48784496
:100F800002E07A487844193808AA302302F80A3077
:100F9000037C0AF10101002E0AF1020A53546A4649
:100FA00002DC4FF0300101E04FF031014FF0010859
:100FB0008DF8001002D0A6F2FF3603E059EA47018F
:100FC00000D06B4E002D02DC2178090704D54FF0CC
:100FD00002082E218DF80110C44600210BE0C7F352
:100FE00003433F01C35C491C6D1E02F8083005290C
:100FF00008F1010801DA002DF1DC00210CE000EB22
:101000001973491C1B786D1E082902F808304FEA35
:10101000091908F1010801DA002DF0DC21688B06BE
:1010200002D516E0A8F10108E04505DD02EB080352
:1010300013F8013C302BF5D0B8F1000F09DD02EBBD
:10104000080313F8013C2E2B03D1090701D4A8F1A2
:101050000108002D05DD3E2102F808106D1E08F183
:101060000108407C002E02F8080008F1010804DAAB
:101070002D20764202F8080002E02B2002F808003A
:101080000A214FF47A70864208F101080BDB96FBC7
:10109000F0F3303302F8083096FBF0F308F1010862
:1010A00000FB136601E0642E0CDB642096FBF0F37A
:1010B000303302F8083096FBF0F308F1010800FB2A
:1010C000136601E00A2E06DB96FBF1F0303002F8E1
:1010D000080008F1010896FBF1F001FB10603030C8
:1010E00002F80800A16908F1010808EB050202EB0B
:1010F0000A00081AA0612078C00602D42046FFF733
:101100002DF9216A08AE01EB0A00206204E0D4E95F
:10111000012116F8010B9047BAF1010AF7D22078A5
:10112000C00602D52046FFF719F96E4609E016F809
:10113000010B3E280FD0D4E901219047206A401CC2
:101140002062B8F10108F2D22046FFF71DF909B07C
:101150000320BDE8F08F206A2844206203E0D4E930
:101160000121302090476D1EEBD3F8E7C66D0000DB
:1011700002FCFFFF10B5436913B1AFF3008001E03B
:10118000FFF725F9012010BD127800F124010A7043
:1011900000224A700122EDE711684FF0FF32E9E7C3
:1011A00010B5436913B1AFF3008001E0FFF7AEF96A
:1011B000012010BD128800F1240182840022C28423
:1011C0000122EDE711684FF0FF32E9E770B51646EE
:1011D0000C46054600F062F8036893F80101012807
:1011E00006D0FF2C0FD8185D68B101202C7070BD9F
:1011F000D3F807013246214603F207130344284679
:10120000BDE8704018474FF0FF3070BD30B5034661
:101210001D781DB10A4603E0AC4201D1181A30BD59
:1012200012F8014B002CF7D15B1CF1E730B50346F7
:101230001D783DB10A4612F8014B1CB1AC42FAD1FF
:101240005B1CF5E7181A30BD0048704724070020E2
:101250007546FFF7F9FFAE4605006946534620F094
:101260000700854618B020B5FEF7F2FFBDE8204024
:101270004FF000064FF000074FF000084FF0000B52
:1012800021F00701AC46ACE8C009ACE8C009ACE805
:10129000C009ACE8C0098D467047000010B500F0E9
:1012A00005F8001D10BD00BF6558000000487047DC
:1012B000440700202DE9F0411F460446032601683B
:1012C000072A01F4006004DB08B116A505E016A5A5
:1012D00003E008B115A500E015A521F0100020607D
:1012E000A069C01EA0610FB1401EA0612046FFF79B
:1012F00035F84FB1D4E9012138469047206A401CA7
:101300002062C01C206206E0206AFAE7D4E90121CD
:1013100015F8010B9047761EF8D22046FFF734F8F7
:10132000BDE8F0814E414E006E616E00494E4600B0
:10133000696E66002DE9F047814616468AB0354849
:1013400078440DC88DE80D0032487844801C03AC09
:101350000DC884E80D0041F69B300844372190FB0E
:10136000F1F290FBF1F5A5F1800501FB12041B3CA5
:1013700002D56442012000E00020DFF898A08046FA
:101380000027FA44AAF1BE0A0EE0E0070AD032466E
:10139000684607EB470101230AEB810100F01EFBC1
:1013A0008DE8070064107F1C002CEED1194F7F449C
:1013B000AE3F19E0E80715D007EB04100DF1180A4D
:1013C00090E80E008AE80E00C068F04201D198193A
:1013D00008903246012306A903A800F0FFFA03ABE8
:1013E00083E807006D10641C002DE3D14FF001036A
:1013F00032466946B8F1000F03A802D000F0D9FACE
:1014000001E000F0EBFAC9E90001C9F808200AB0D0
:10141000BDE8F087946A000010B50446AFF3008081
:101420002046BDE81040FEF7FEBE00004FF0013C34
:1014300050F8042B51F8043B9A4221D1A2EB0C0343
:10144000934313EACC1317D150F8042B51F8043B03
:101450009A4215D1A2EB0C03934313EACC130BD1A0
:1014600050F8042B51F8043B9A4209D1A2EB0C032B
:10147000934313EACC13DBD04FF00000704700BF5A
:10148000D01A01BAB1FA81F101F0180122FA01F083
:10149000CB40C1F12001DBB2C0B2C01A2CFA01F37B
:1014A000D11A914311EAC311E6D1704701491820BE
:1014B000ABBEFEE72600020070475FEA400C08BFA3
:1014C00091F0000F4FEA8C234FEAC12243EA5151B9
:1014D0004FEA1C5018BF00F5F0404FEA300018BF2B
:1014E00041F000415FEA6C5C00F02980BCF1FF3FF5
:1014F00008BF40F080407047130C06BF12044FF045
:10150000100C4FF0000C130E04BF12020CF1080C6B
:10151000130F04BF12010CF1040C930F04BF9200CF
:101520000CF1020CD30F04BF52000CF1010C114658
:101530004FF00002A0F11F00A0EB0C00704711F06B
:10154000004F08BF704731F000413FF4D5AF0B0C9E
:1015500006BF09044FF0100C4FF0000C0B0E04BF37
:1015600009020CF1080C0B0F04BF09010CF1040C6B
:101570008B0F04BF89000CF1020CCB0F04BF490094
:101580000CF1010CCCF12003A0EB0C0022FA03F3C8
:1015900002FA0CF241EA030100F10100704720F069
:1015A0007F4C80EA030023F07F47ACEB070303F591
:1015B0007C5300F0004003F1FF032DE980494FEA1E
:1015C000154B09B44FEA144325EA0B4E24EA0348AD
:1015D0000FF2042606EB132749083E785FEA320231
:1015E00003FB0667C7F5000707FB06F64FEA54370B
:1015F0004FEAD64606F1020607FB066CCCF1005C0A
:101600004FEA1C472CEA074C07FB06F40CFB06F5D7
:1016100004EB15464FEA961634BF00204FF0004009
:101620004FEAD13706FB07FC4FEA1C4C0CFB0BF7CB
:10163000D21B03FB0CF761EB07010CFB0EF7B0EBC1
:10164000074072EB17420CFB08F734BFA2EB0742CE
:10165000B2EB074261EB17414FEA0C444FEA9107A6
:1016600006FB07FC4FEA1C4C0CFB0BF7B0EBC7402A
:1016700072EB573203FB0CF734BFA2EBC742B2EB5D
:10168000C74261EB57310CFB0EF7B0EBC70072EBB2
:1016900057720CFB08F734BFA2EBC702B2EBC702CC
:1016A00061EB5771039F4FEA816141EA921104EBAC
:1016B000CC044FEAD1374FEA826206FB07FC42EACC
:1016C00090124FEA80604FEA1C4C0CFB0BF7D21BC8
:1016D00003FB0CF761EB07010CFB0EF7B0EB0740C7
:1016E00072EB17420CFB08F734BFA2EB0742B2EBD8
:1016F000074261EB17414FEA8C554FEA910704EB23
:101700009C2406FB07FC4FEA1C4C0CFB0BF7B0EBD0
:10171000C74072EB573203FB0CF734BFA2EBC74252
:10172000B2EBC74261EB57310CFB0EF7B0EBC700D1
:1017300072EB57720CFB08F734BFA2EBC702B2EB97
:10174000C70261EB577115EB4C254FEA816141EA05
:1017500092114FEA82624FEAD13742EA901206FBB9
:1017600007FC44F100044FEA80604FEA1C4C0CFB7C
:101770000BF7D21B03FB0CF761EB07010CFB0EF719
:10178000B0EB074072EB17420CFB08F734BFA2EB3B
:101790000742B2EB074261EB174115EB1C154FEA0C
:1017A000813141EA92414FEA823242EA90424FEA65
:1017B00080304FEA0C7644F1000448EA03434EEAD5
:1017C0000B484FF0000EB2EB080C71EB030724BF7F
:1017D000624639464EEB0E0E4FF0000B0018524198
:1017E00049414BEB0B0BB2EB080C71EB03077BF1A0
:1017F000000B24BF624639464EEB0E0E4FF0000B35
:101800000018524149414BEB0B0BB2EB080C71EB4A
:1018100003077BF1000B24BF624639464EEB0E0EE8
:1018200051EA020718BF46F0010616EB0E7655F195
:10183000000254F1000103D5BDE88901BDE800882C
:10184000BDE88901BDE80048B619524141EB0101EC
:10185000A3F10103704780807F7E7D7C7B7A79785D
:10186000777676757473727171706F6E6E6D6C6C65
:101870006B6A6A6968686766666564646363626107
:101880006160605F5F5E5E5D5D5C5C5B5B5A5A5988
:1018900059585857575656555555545453535252F4
:1018A0005251515050504F4F4F4E4E4D4D4D4C4C4C
:1018B0004C4B4B4B4A4A4A49494948484847474795
:1018C00047464646454545444444444343434342D2
:1018D000424242414141002B9C4630D477002BD0FC
:1018E0001CB54FEA370703B44FF010004FF010015A
:1018F000BAF1000F06D0BCF1000FDCBF40F00800C9
:1019000040F008014FF000000FBCBDE810400BF1A3
:10191000010BBBF1010F08BF5FEA170722BF12F1ED
:10192000010211F101014FF0004143F1000300F009
:10193000004043EA00007047F9D35708D0E746EA71
:10194000064613F1400F4FEA16461FDD13F1200F34
:10195000DFBF16430A46002120335B42BED0C3F1ED
:10196000200746EA064602FA07F74FEA164646EA15
:101970000706C3F1200722FA03F201FA07F721FA5A
:1019800003F14FF0000342EA0702A7E746EA020626
:1019900046EA06464FEA164646EA0106BCBF46EA54
:1019A0000646360C4FF000034FF000024FF00001E6
:1019B00094E72DE9804C9A46934670B491E838003C
:1019C00007C831EA400C48BF34EA430C03D5FFF79F
:1019D000E6FDFFF780FFF0BCBDE8008C2DE9804CF0
:1019E0009A46934670B491E8380007C810F0804FCB
:1019F00008BF13F0804F03D100F005F8FFF76BFF2D
:101A0000F0BCBDE8008C20F07F4780EA030023F0A3
:101A10007F4C07EB0C03A3F57C5300F00040A3F1CF
:101A2000FE0392F0000F00F0B38095F0000F00F07D
:101A300077802DE901494FEA11404FEA144621EA27
:101A4000004800FB06FC24EA064708FB06F607FBF5
:101A500008F800FB07F718EB06484CEB164C4FEA6A
:101A6000124B18EB07484FEA15464CEB174022EA99
:101A70000B4E0BFB06FC25EA06470EFB06F607FBA2
:101A80000EFE0BFB07F71EEB064E4CEB164C4FF011
:101A900000061EEB074E4CEB174B18EB0B0840F102
:101AA000000018EB0E0B58EB000840F100008F1AF5
:101AB0004FF000013CBFC943661B14BFB5EB040CDB
:101AC00000213CBFC943F61B4FEA17444EEA8E0E75
:101AD00027EA04454FEA1C4704FB07622CEA074C3F
:101AE00005FB07F70CFB05F604FB0CFC16EB0746A1
:101AF00042EB174216EB0C4642EB1C421BEB060670
:101B000058EB0202414146EA9E0601D5BDE8018933
:101B1000B619524141EB0101A3F10103BDE801896E
:101B20004FEA14454FEA114724EA054621EA074CDB
:101B300005FB07F406FB07F70CFB06F105FB0CFCA5
:101B400011EB074144EB17444FEA124711EB0C41EC
:101B500044EB1C4422EA074C05FB07F206FB07F79F
:101B60000CFB06F605FB0CFC16EB074642EB174296
:101B700016EB0C4642EB1C456A1854F1000148BFB5
:101B80007047B619524141EB0101A3F101037047BF
:101B900095F0000F37D04FEA11424FEA144721EA7F
:101BA000024624EA074C02FB07F106FB07F70CFB91
:101BB00006F402FB0CFC14EB074441EB17414FEA1F
:101BC000154714EB0C4441EB1C4125EA074C02FB82
:101BD00007F506FB07F70CFB06F602FB0CFC16EB01
:101BE000074645EB174516EB0C4645EB1C42121910
:101BF00051F1000148BF7047B619524141EB010154
:101C0000A3F1010370474FEA14454FEA114724EA54
:101C1000054621EA074C05FB07F106FB07F70CFB1D
:101C200006F24FF0000605FB0CFC12EB074241EBFD
:101C3000174112EB0C4251EB1C4148BF7047921800
:101C400041EB0101A3F101037047000070B50446A8
:101C5000856800F05FF808B1144870BD2946A06897
:101C600005F01CFF1249134C884202DD214605F0A5
:101C700015FF1149884202D9214605F0FBFB0F49A7
:101C800005F06CFC05F0CAFB0D4A0E4B05F0D2F9CD
:101C900000220D4B05F032F804F04EFF4FF0FF31FB
:101CA00005F0D5FF20F0004070BD0000000080BFAF
:101CB000000034430000B443000034C38FC2F53D3C
:101CC0001F85EB51B81E0940008066407CB5044674
:101CD000084621601146A2800022A2600BA20225C4
:101CE00012680192072201ABC9B2009503F0D2FF3E
:101CF000074D40B1204600F00DF8002802D0022028
:101D0000287001207CBD0120FAE7000007040000D4
:101D10002C0000201CB50446022000900C2201ABD0
:101D20002179206803F05FFE98B19DF804109DF8BA
:101D3000050001F00F0140EA012005F009FD064908
:101D400005F04EFD6FF00B0105F081FFA060002053
:101D50001CBD01201CBD00000000B443FEE70000D4
:101D600070B50446006890F820000128114817D08B
:101D7000FFF76CFF104D294605F0F0FB2168486223
:101D8000606890F8200001280A4800F10C000CD08F
:101D9000FFF75CFF294605F0E1FB6168486270BD12
:101DA000FFF754FF80F00040E4E7FFF74FFF80F0BB
:101DB0000040EFE7EC050020CDCC6C402DE9F04170
:101DC000002407462546264644F62068384602F099
:101DD000C5FAD7E910232046294604F0DFFE044661
:101DE0000D46012000F0B2F9761CB6B24645EDD39F
:101DF0000022054B2046294604F080FF04F09CFE9B
:101E000002494860BDE8F0810088D34030000020DE
:101E1000014800F08BB800003805002030B590F87C
:101E200040500124AC40C56B6C600468636043683B
:101E3000102B036803D099600068C26030BD9A60BF
:101E40000068C16030BD704772B6FEE710B590F80B
:101E500021100022022905D00421816380F820206E
:101E6000012010BD01680B6823F00E030B600168B0
:101E70000B6823F001030B6090F84030C46B012124
:101E800001FA03F3636080F8211080F820201046E7
:101E900010BD000010B590F821100024022903D0D5
:101EA0000421816301243DE001680A6822F00E02EA
:101EB0000A6001680A6822F001020A601A4A016891
:101EC000914201D1012121E0174A1432914201D1FE
:101ED00010211BE0144A2832914201D1891515E0E6
:101EE000114A3C32914201D189140FE00E4A50321E
:101EF000914202D14FF4803108E00B4A64329142A2
:101F000002D14FF4801101E04FF08071064A083A87
:101F10005160012180F82110002180F82010416BD0
:101F200001B18847204610BD080002402DE9F05F4E
:101F3000C16B0C6801680B68D0F840C0042202FA3B
:101F40000CF2494DDFF824A1494E4A4FDFF828B181
:101F5000DFF828E122422CD05A072AD50A689206D7
:101F600003D40A6822F004020A600168A94201D180
:101F7000042219E0514501D1402215E0B14202D1BD
:101F80004FF4806210E0B94202D14FF480420BE07E
:101F9000594502D14FF4802206E0714502D14FF439
:101FA000800201E04FF080622F4908394A60C16A1F
:101FB0003BE04FF0020808FA0CF818EA040F4FF063
:101FC00000094FF0010235D05FEA837832D50B6803
:101FD0009B0605D40B6823F00A030B6080F82120D0
:101FE0000168A94201D1022219E0514501D1202204
:101FF00015E0B14202D14FF4007210E0B94202D1B3
:102000004FF400520BE0594502D14FF4003206E084
:10201000714502D14FF4001201E04FF000721249F5
:1020200008394A6080F82090816A00291AD0BDE8FA
:10203000F05F0847082505FA0CF5254212D01B076A
:1020400010D50B6823F00E030B6090F84010C36BA3
:1020500002FA01F15960826380F8212080F8209013
:10206000016BE2E7BDE8F09F080002401C0002405F
:102070003000024044000240580002406C00024020
:1020800030B528B308C8134914221944B1FBF2F142
:102090008900C16310498163022141771A6843F6C0
:1020A000F0718A43D0E900142143D0E902452C4362
:1020B0002143046921434469214384692143114335
:1020C000196000214163012242770177084630BD43
:1020D000012030BDF8FFFDBF0000024070B504468E
:1020E00090F82000002501280CD0012084F8200061
:1020F00094F821600020012E06D084F820000225EB
:10210000284670BD022070BD022684F82160A063BD
:102110002068066826F0010606602046FFF77EFE6E
:10212000E06A00282068016802D041F00E0106E054
:1021300021F0040101602068016841F00A0101609A
:102140002068016841F001010160D9E770B50446DB
:1021500000F008F90546601C02D0044800780444E9
:1021600000F000F9401BA042FAD370BD0C00002023
:102170002DE9F84FDFF8B8910024A9F1040B2346AC
:102180000F2709F1040AABF1040EC9E00125A540AF
:102190002A40AA427DD1674ED1F804C0ACEB0608B4
:1021A000B44532D014DCBCF1030F3AD009DCBCF1E9
:1021B000000F2AD0BCF1010F1CD0BCF1020F31D1AD
:1021C0001DE0BCF1110F17D0BCF1120F2AD119E09C
:1021D000B8F5881F19D006DCB8F5803F15D0B8F5E2
:1021E000801F1FD111E0B8F5001F0ED0B8F5041FF5
:1021F00018D10AE0CB6815E0CB681B1D12E0CB6854
:1022000008330FE0CB680C330CE08B682BB1012B4B
:102210004FF0080303D0456104E0042302E00561A8
:1022200000E00023FF2A01D8064601E000F1040681
:102230004FEA840501D9A5F12005D6F8008007FAF8
:1022400005FC28EA0C0803FA05F548EA0508C6F873
:1022500000804D68ED0062D5374DAE6946F001064D
:10226000AE61AD6924F0030605F001050095334D1C
:1022700006EB050CDCF80850A607360F07FA06F83F
:1022800025EA0805DFF8B880404503D14FF0000883
:1022900017E044E0DFF8AC80404502D14FF0010880
:1022A0000FE0DFF8A480404502D14FF0020808E0BB
:1022B000DFF89880404502D14FF0030801E04FF06D
:1022C000040808FA06F848EA0508CCF808804D68C2
:1022D000D9F80060ED024D4601D5164300E0964363
:1022E0002E604D68DAF80060AD02554601D5164300
:1022F00000E096432E604D68DBF80060AD035D465C
:1023000001D5164300E096432E604D68DEF800606C
:10231000ED03754601D5164300E096432E60641C1C
:102320000D682A46E5407FF431AFBDE8F88F000024
:10233000080401400000111000100240000001409C
:1023400000080140000C0140001001400014014051
:102350008068084000D0012070470AB101617047D1
:102360000904FBE701488068704700000C0000206A
:1023700070B5040025D094F83D00002520B984F8FC
:102380003C50204600F07EFA242084F83D0020686E
:10239000016821F0010101602068016841F40041F9
:1023A00001602068016821F40041016000F0C6FB73
:1023B0004D4A6168914201D84C4900E04C4988423D
:1023C00001D2012070BD4B492368B0FBF1F15E687A
:1023D00026F03F060E435E606368934206D94FF4D1
:1023E000967359434FF47A73B1FBF3F12368491C98
:1023F0001E6A26F03F06314319626168914210D887
:102400004900401EB0FBF1F2521CC2F30B02042A39
:1024100001D2042022E0B0FBF1F0401CC0F30B001D
:102420001CE0A268F2B301EBC10303EB0116431EEB
:10243000B3FBF6F35B1C43F480431B0549D092B316
:1024400001EBC10202EB0111401EB0FBF1F0401C98
:10245000C0F30B0040F4804040F400402168CA699A
:102460004CF6FF739A431043C861D4E90710014347
:102470002068026822F0C00211430160D4E9030120
:1024800001432068826848F2FF339A431143816018
:10249000D4E9050108432168CA6822F0FF0210430D
:1024A000C86001E00EE016E02068016841F001011B
:1024B00001602564202084F83D00256384F83E50A7
:1024C000002070BD01EB4106431EB3FBF6F35B1C1D
:1024D000B3E70120C2E701EB4101401EB0FBF1F080
:1024E000401CC0F30B00B7E7A086010080841E00EB
:1024F00000093D0040420F002DE9FF4F83B0002549
:10250000DDE910799A4693460446DDF84880009547
:10251000FFF728FF064694F83D0020287CD11923B8
:10252000012288492046009601F08AFC0028F5D156
:1025300094F83C0001286FD0012084F83C0020680A
:102540000168C90703D1016841F0010101602068F9
:10255000016821F400610160222084F83D004020E0
:1025600084F83E0025646762A4F82A90608D208577
:102570007548E062CDE9008653465A4620460499E4
:1025800001F060FB00287CD1208DDFF8C09120276E
:1025900068B1012814D00228206801681ED041F4D7
:1025A000806101602068416980690090BCE020681A
:1025B000416981690091016841F400710160B3E0F3
:1025C0002068016821F48061016072B62068416969
:1025D00081690091016841F400710AE041F40061F1
:1025E000016072B62068416981690091016821F437
:1025F0008061016062B697E0032865D801280CD09D
:10260000022843464FF000024946204600960BD070
:1026100001F016FCA8BB0CE091E032464146204692
:1026200001F0B4FC68BB72E001F00AFC48BB72B672
:1026300033E02068016821F48061016072B620688F
:102640000069616A0870606A401C6062208D401EEB
:102650002085608D401E60853D4846F2A8110068C7
:10266000B0FBF1F0C0EBC00000EB80000090401E1A
:10267000009007D020684069C04340070DD50098FE
:10268000F5E727E044F8305F6773A573206940F0F1
:102690002000206162B625731CE02068016841F4C7
:1026A0000071016020680069616A0870606A401CFE
:1026B0006062218D491E2185618D491E618562B64A
:1026C00021680969017026E032464146204601F042
:1026D0005DFC18B1012007B0BDE8F08F20680069EB
:1026E000616A0870606A401C6062208D401E81B281
:1026F0002185608D401E608520684269D243520763
:1027000012D4032903D1016821F48061016020689B
:102710000069616A0870606A401C6062208D401E1A
:102720002085608D401E6085208D00287FF464AF79
:1027300084F83D7084F83E5084F83C50CBE702208A
:10274000C9E70000020010000000FFFF04000100C4
:10275000180000202DE9FF4F83B09A46DDE911975C
:1027600093460446DDF84080FFF7FCFD054694F8EB
:102770003D0020287FD119230122404920460095A1
:1027800001F05EFB002876D194F83C00012872D05D
:10279000012084F83C0020680168C90703D1016862
:1027A00041F0010101602068016821F400610160CD
:1027B000212084F83D00402084F83E000026266455
:1027C000C4F82480A4F82A90608D20852C48E0620B
:1027D000CDE9007553465A462046049901F0B0FAF7
:1027E00070B930E02A463946204601F007FC58B15E
:1027F000206C042804D12068016841F40071016054
:10280000012007B0BDE8F08F606A21680078086198
:10281000606A401C6062218D491E89B22185628DEB
:10282000521E628522685369DB435B070BD469B192
:1028300000781061606A401C6062208D401E208517
:10284000608D401E6085208D0028CBD12A463946F8
:10285000204601F0C9FA0028CAD154F83D0B01689E
:1028600041F400710160202004F81E09E6776677C4
:102870000020C6E7FFE70220C3E7000002001000C7
:102880000000FFFF10B586B0002100910191029178
:10289000039100680F4988421AD10F4CA06940F09B
:1028A0000800A061A069694600F008000490C020FB
:1028B000009012200190032003900848FFF758FC75
:1028C000E06940F40010E061E06900F40010049059
:1028D00006B010BD0054004000100240000C014042
:1028E0000248816802781144816070470C00002022
:1028F000074810B5016841F010010160032000F0A5
:1029000075F80F2000F006F800F024F8002010BD44
:102910000020024070B50D4D04464FF47A712878BE
:10292000B1FBF0F00A490968B1FBF0F000F0DCFA05
:1029300048B9102C07D200222146501E00F036F86C
:1029400000206C6070BD012070BD00000C000020F4
:10295000180000200C4808B5816941F0010181612F
:10296000816901F001010091C16941F08051C161AB
:10297000C06900F0805000900448416821F0E06197
:1029800041F00071416008BD0010024000000140AC
:10299000002809DB00F01F0201219140400980005E
:1029A00000F1E020C0F8001170470000F0B40E4BB9
:1029B0001B680C46C3F30223C3F10705042D00D99D
:1029C0000425191D072901D2002300E0DB1E012682
:1029D00006FA05F1491E214099409E40761E164098
:1029E0003143F0BC02F03EBC0CED00E0064900F0C3
:1029F000070208684FF6FF03184040EA0220034A26
:102A000010430860704700000CED00E00000FA057C
:102A10002DE9F0470F46050061D0434E306800F0C5
:102A20000700B84209D2306820F007003843306010
:102A3000306800F00700B84251D128683B4C81074C
:102A400012D5400703D5606840F4E06060602878E4
:102A5000000703D5606840F4605060606068A96852
:102A600020F0F000084360602878C00728D068682C
:102A7000012810D02168022810D0890700292EDAF9
:102A8000616821F0030101436160FFF76BFC804640
:102A900041F288390DE021688903EFE78901EDE70C
:102AA000FFF760FCA0EB0801494502D90320BDE80F
:102AB000F0876068696800F00C00B0EB810FEFD11F
:102AC000306800F00700B8420BD9306820F00700EA
:102AD00038433060306800F00700B84201D0012070
:102AE000E5E72878400705D56068E96820F4E060EC
:102AF000084360602878000706D56068296920F4DB
:102B0000605040EAC100606000F038F86168084A2F
:102B1000C1F30311515CC8400649086006480068CB
:102B2000FFF7F8FE0020C2E700200240001002403C
:102B3000DC7C000818000020100000200448054933
:102B400000684968044AC1F30221515CC8407047DB
:102B50001800002000100240EC7C000804480549E1
:102B600000684968044AC1F3C221515CC8407047FB
:102B70001800002000100240EC7C00080E4A51684A
:102B80000E4801F00C03042B11D0082B0FD10C4878
:102B9000C1F38343C903C05C0AD55168084AC1F335
:102BA0004041921E515C054A5043B0FBF1F0704722
:102BB00004494843704700000010024000127A00A8
:102BC000CC7C000800093D002DE9F84F040070D0CE
:102BD0002078C04DC00749D06868C0F38100012843
:102BE00007D06868C0F38100022809D16868C00373
:102BF00006D52868800339D560680028E7D035E01D
:102C00006068B0F5803F0BD010B1B0F5A02F11D0A7
:102C1000286820F480302860286820F4802002E0B2
:102C2000286840F480302860606890B1FFF79AFB14
:102C300006460AE0286840F480202860F0E700BFDC
:102C4000FFF790FB801B642873D828688003F7D5B2
:102C50000CE0FFF787FB064605E000BFFFF782FBAD
:102C6000801B6428F0D828688003F7D420789A4E17
:102C700080074FF001094FF0000839D5686810F05F
:102C80000C0F07D06868C0F38100022809D168687A
:102C9000C00306D42868800714D52069012808D10C
:102CA00010E02069B0B1C6F80090FFF75BFB074663
:102CB00005E00AE1FFF756FBC01B0228C4D82868CC
:102CC0008007F7D52868616920F0F80040EAC10064
:102CD00028600DE0C6F80080FFF744FB074604E0DB
:102CE000FFF740FBC01B022823D828688007F7D4D1
:102CF000207800072CD57948A169D9B1C0F8009097
:102D0000FFF730FB074604E0FFF72CFBC01B02284F
:102D10000FD8686A8007F7D571484FF4FA510068F8
:102D2000B0FBF1F0009000BF0098411E0091FAD274
:102D30000EE080E0C0F80080FFF714FB074604E0D7
:102D4000FFF710FBC01B022875D8686A8007F7D40C
:102D50002078400760D5E8690027C00008D4E869FA
:102D600040F08050E861E869012700F08050009051
:102D70005C480168C90513D40168834641F4807139
:102D80000160FFF7EFFA824606E000BFFFF7EAFABC
:102D9000A0EB0A0064284ED8DBF80000C005F5D58A
:102DA000E06801280AD008B1052813D0286A20F06D
:102DB00001002862286A20F0040002E0286A40F03E
:102DC00001002862E06841F2883B98B1FFF7CAFA37
:102DD00082460BE0286A40F004002862EEE700BF5C
:102DE000FFF7C0FAA0EB0A0159455AD8286A8007B4
:102DF000F6D50CE0FFF7B6FA824605E0FFF7B2FA27
:102E0000A0EB0A0159454CD8286A8007F6D41FB1B7
:102E1000E86920F08050E861E06988B36968C1F32F
:102E20008101022944D00228C6F8608004D0FFF74F
:102E300099FA044638E034E0FFF794FA074604E0D4
:102E4000FFF790FAC01B02282BD828688001F7D41E
:102E5000206AB0F5803F05D16868A16820F4003091
:102E600008436860D4E908010843696821F47411D3
:102E700008436860C6F86090FFF774FA044606E0FD
:102E800025E000BFFFF76EFA001B022809D828686A
:102E90008001F7D51BE000BFFFF764FA001B022892
:102EA00002D90320BDE8F88F28688001F4D40EE031
:102EB0000128F7D06868226A00F48031914204D179
:102EC000616A00F47010884201D00120EAE7002016
:102ED000E8E7000000100240000042428004424245
:102EE000180000200070004010B5401EB0F1807F37
:102EF00001D3012010BD4FF0E02460610F21601765
:102F000002F0B0F90020A06107202061002010BD70
:102F10007047704710B590F83C20012A22D001225A
:102F200080F83C20CA688C6822F4407222434C68C6
:102F300022F4806222430C6822F4006222430C696E
:102F400022F4805222434C6922F400522243C96980
:102F5000002322F480420A4301684A6480F83C302E
:102F6000002010BD022010BD70B590F83C20012A51
:102F700026D0012480F83C40022280F83D200368DE
:102F80005A689D6822F070060A6832435A600D4BF9
:102F900002689A4208D0B2F1804F05D00A4B9A429B
:102FA00002D00A4B9A4204D1496825F080031943A4
:102FB000916080F83D40002180F83C10084670BDCB
:102FC000022070BD002C01400004004000080040B9
:102FD00010B5040003D094F83D0010B107E00120C3
:102FE00010BD002084F83C00204600F01FF80220AD
:102FF00084F83D00211D206801F0B8FC012084F810
:10300000460084F83E0084F83F0084F8400084F8CD
:10301000410084F8420084F8430084F8440084F8B6
:10302000450084F83D00002010BD000008B5114A9D
:1030300001681148914208D1816941F400618161C0
:10304000806900F40060009008BD0C4A9142FBD1F9
:10305000C16941F00201C161C069002200F00200B3
:10306000009001211D20FFF7A1FCBDE808401D20B4
:10307000FFF78EBC002C014000100240000400400D
:1030800090F83D10012901D001207047022180F8FD
:103090003D100168CA6842F00102CA6000680B492D
:1030A000884208D0B0F1804F05D00949884202D04B
:1030B0000849884204D1816801F00701062903D03C
:1030C000016841F00101016000207047002C0140BF
:1030D000000400400008004070B5044690F83C0031
:1030E0000025012817D0012684F83C60022084F8CE
:1030F0003D002068826822F0770222F47F428260DD
:103100000868502838D00DDC20284FD005DC90B35B
:10311000102811D14AE0022070BD302846D0402846
:103120000AD13BE060282FD070280DD0B0F5805F29
:1031300003D0B0F5005F12D0012584F83D60002077
:1031400084F83C00284670BDCB68D1E90121206895
:1031500001F055FC2068816841F0770109E0CB68F7
:10316000D1E90121206801F04AFC2068816841F41E
:1031700080418160E1E719E0CA684968206801F090
:10318000F3FC5021206806E0CA684968206801F015
:10319000FCFC6021206801F03CFCCEE7CA6849686D
:1031A000206801F0E1FC40212068F4E72268014634
:1031B0001046F0E770472DE9F04104460068C66804
:1031C00005694FF00007A90713D5B10711D5F91EFE
:1031D000016101202077206880698007204602D0A5
:1031E000FFF7E8FF04E000F0C9F8204600F078F9A6
:1031F0002777680716D5700714D521686FF004008B
:103200000861022020772068806910F4407F204602
:1032100002D0FFF7CFFF04E000F0B0F8204600F046
:103220005FF92777280715D5300713D521686FF088
:1032300008000861042020772068C06980072046C4
:1032400002D0FFF7B7FF04E000F098F8204600F046
:1032500047F92777E80616D5F00614D521686FF0F0
:1032600010000861082020772068C06910F4407FB2
:10327000204602D0FFF79EFF04E000F07FF82046D2
:1032800000F02EF92777E80708D0F00706D021686C
:103290006FF001000861204600F0AAF9280608D561
:1032A000300606D521686FF0800008612046FFF7E0
:1032B0002FFE680608D5700606D521686FF040001D
:1032C0000861204600F0DAF9A8060AD5B00608D54C
:1032D00021686FF0200008612046BDE8F041FFF74B
:1032E00018BEBDE8F081000010B586B00021009145
:1032F0000191029103911C4C03681C4A02211C4855
:10330000A3420CD1936943F0040393619269039142
:1033100002F004020492C214CDE900211FE0B3F1CF
:10332000804F11D0134883421CD1906940F00800AF
:1033300090619069039100F0080004909815CDE920
:10334000000169460C480BE0936943F00403936164
:103350009269009102F004020191CDE903126946DD
:10336000FEF706FF06B010BD002C01400010024021
:103370000008014000080040000C0140704770B593
:10338000044690F83C0000260D4601280FD001208D
:1033900084F83C006AB1042A1DD0082A2FD00C2AD8
:1033A0003FD00126002084F83C00304670BD02204A
:1033B00070BD206801F036FB2068816941F008018A
:1033C00081612068816921F004018161206881693F
:1033D0002A69114311E0206801F04CFB20688169E3
:1033E00041F4006181612068816921F4806181611B
:1033F000206881692A6941EA02218161D2E7206857
:1034000001F064FB2068C16941F00801C1612068D6
:10341000C16921F00401C1612068C1692A691143B1
:1034200011E0206801F07EFB2068C16941F4006171
:10343000C1612068C16921F48061C1612068C169EE
:103440002A6941EA0221C161ACE710B5040003D04A
:1034500094F83D0010B107E0012010BD002084F871
:103460003C00204600F01EF8022084F83D00211D9B
:10347000206801F07BFA012084F8460084F83E00C1
:1034800084F83F0084F8400084F8410084F842004A
:1034900084F8430084F8440084F8450084F83D0033
:1034A000002010BD08B501680B48B1F1804F0BD06A
:1034B0000A4A914207D1C16941F00401C161C06962
:1034C00000F00400009008BDC16941F00101C16134
:1034D000C06900F00100F5E700100240000800405C
:1034E0007047000010B50446022249B104290ED0ED
:1034F000082913D094F84100012816D0012010BDEE
:1035000094F83E000128F9D184F83E200FE094F8A9
:103510003F000128F2D184F83F2008E094F84000F1
:103520000128EBD184F8402001E084F841200122F9
:10353000206801F057FA0F492068884203D1426C95
:1035400042F4004242642068884208D0B0F1804FC3
:1035500005D00949884202D00849884204D18168CF
:1035600001F00701062903D0016841F00101016063
:10357000002010BD002C0140000400400008004065
:1035800030B504460D460068002201F02BFA174BB7
:1035900041F2111120688A10984209D1036A0B4246
:1035A00006D1036A134203D1436C23F400434364FE
:1035B0002068036A0B4206D1016A114203D10168F7
:1035C00021F00101016001203DB1042D08D0082D3A
:1035D00009D084F84100002030BD84F83E00FAE7AD
:1035E00084F83F00F7E784F84000F4E7002C01403E
:1035F00030B51749006885B00968884225D115485B
:1036000000F09EFD28B105B013A0BDE8304003F0E6
:10361000E1B8104900221C39144608681546426278
:1036200049684A62406A03F0F9FE0E4A92F90120A5
:103630000492084AD2E91832CDE9023202460B461A
:1036400009A0CDE9004503F0C5F805B030BD000084
:1036500004020020B8030020494D55204572726FC6
:103660007200000000000020252E326620252E3238
:103670006620252E32662025640A000070477047B8
:1036800070470000F8B5016804460868CA684B69CD
:1036900010F00F0F4FF0000559D003F0010602F4AF
:1036A0009077374365D0C10705D0D10503D5616C4C
:1036B00041F001016164410705D5D90703D0616C70
:1036C00041F002016164810705D5D90703D0616C1F
:1036D00041F004016164010707D502F02001314384
:1036E00003D0616C41F008016164616C00293AD03B
:1036F000800604D5900602D5204601F073FC2068B0
:103700004069616CC0F38010090700D460B32046A3
:1037100001F033FC20684069400621D52068143050
:1037200050E8001F21F0400140E80012002AF5D1C6
:10373000E06BA8B16D494163E06BFEF7ABFB00287D
:1037400011D0E06B416B01B0BDE8F0400847830643
:103750000FD593060DD52046BDE8F84001F042BCD8
:103760002046FFF78DFFF8BD2046FFF789FF65640F
:10377000F8BD266B2023012E7CD1C6067AD5D6064D
:1037800078D508684868009048694FF002064006FE
:1037900040D5E16B086840680004000CE8D0A28DB9
:1037A0008242E5D9E085886920282DD020680C3038
:1037B00050E8001F21F4807140E80012002AF5D182
:1037C0002068143050E8001F21F0010140E8001289
:1037D000002AF5D12068143050E8001F21F0400184
:1037E00040E80012002AF5D184F8423025632068B1
:1037F0000C3050E8001F21F0100140E80012002AB0
:10380000F5D1E06BFEF722FB6663A08DE18D401AD7
:1038100081B22AE0A08DE18D401A81B2E08D0028AE
:10382000A6D00029A4D022680C3252E8000F20F460
:10383000907042E80007002FF5D12068143050E85E
:10384000002F22F0010240E80027002FF5D184F874
:103850004230256320680C3050E8002F22F010021F
:1038600040E80023002BF5D166632046FFF707FFF1
:10387000F8BDFFE705062BD5150629D594F84100BC
:103880002128F5D1A068B0F5805F01D12069B0B1E1
:10389000206A411C2162216800784860E08C401E4B
:1038A0000004000CE084E3D12068C16821F08001AD
:1038B000C1602068C16841F04001C160D8E7206A5A
:1038C0000088C0F308004860206A801C2062E5E799
:1038D0004006CDD55006CBD5CA68204622F040021E
:1038E000CA6084F8413000F093F9C1E7D54E000872
:1038F00070B5040004D094F84100002510B106E032
:10390000012070BD84F84050204600F023F82420A8
:1039100084F841002068C16821F40051C16020464C
:1039200001F0C2FB2068016921F490410161206827
:10393000416921F02A0141612068C16841F40051C8
:10394000C1606564202084F8410084F8420065630A
:10395000002070BDF0B585B000240094019402945D
:103960000394054603684648DFF810C1022103228C
:10397000444E071563451AD1836943F4804383613C
:10398000836903F480430493836943F004038361F0
:103990008069039200F0040004900802CDE9000160
:1039A00069463046FEF7E4FBCDE900741EE0DFF81F
:1039B000D8C0634521D1C36943F40033C361C369EF
:1039C00003F400330493836943F004038361806943
:1039D000039200F0040004900420CDE90001694640
:1039E0003046FEF7C5FB0820CDE9000469463046A5
:1039F0000294FEF7BDFB05B0F0BD244EB342FAD1F0
:103A0000C36943F48023C361C36903F4802304932F
:103A1000836943F0080383618069CDE9007100F098
:103A20000800CDE903201A4E69463046FEF7A0FB98
:103A3000F014CDE90004694630460294FEF798FB85
:103A4000154E144830601020C6E901048020C6E9F4
:103A500003047461B4613046F461FEF711FB08B1F0
:103A6000FEF7F2F9AE630022022127207562FEF70D
:103A70009DFF2720FEF78CFFBDE7000000380140C6
:103A8000001002400008014000440040004800408F
:103A9000000C01401C0002403805002090F8423024
:103AA000202B01D00220704721B11AB100230363FB
:103AB00001F056BB0120704710B50D49044600685F
:103AC0000968884212D10B48807802F013FF094A36
:103AD0000748121D511E783002F094FE0549204619
:103AE0000122BDE81040891CFFF7D8BF10BD0000BF
:103AF00024030020000000202DE9F843044690F83C
:103B00004100984616460D46202802D00220BDE806
:103B1000F88385B17EB100206064212084F84100E3
:103B2000FEF720FCA6848146E684A0682027B0F535
:103B3000805F02D003E00120E9E7206910B12E4642
:103B400000250EE000260CE08021204601F023FB3A
:103B5000A8B9C6B116F8010B21684860E08C401E78
:103B6000E084E08C4B464FF00002CDF80080002846
:103B7000EAD14FF04001204601F00DFB40B184F83E
:103B800041700320C3E735F8020BC0F30800E3E7F8
:103B900084F841700020BAE770B5044690F84100FF
:103BA000202801D0022070BD49B342B32162A28413
:103BB000E28400206064212384F84130A56B114B1E
:103BC000AB62A56B104BEB62A56B104B2B63A36B29
:103BD0005863256813462A1DA06BFEF77FFA2168FB
:103BE0006FF0400008602068143050E8001F41F07A
:103BF000800140E80012002AF5D1002070BD0120AC
:103C000070BD00002F4F0008714F0008E54E0008FE
:103C100070477047FEE701684A69D24352050FD4E6
:103C20006FF480624A61002140F8301F2022427305
:103C30008173026942F0040202610173012070473E
:103C4000002070472DE9F84F0446006889460B9D17
:103C500001689846174641F4806101602068016858
:103C600041F48071016000954FF0011B002259461C
:103C700020460A9B00F0E4F84FF4007A40B1206837
:103C80000068C00501D5C4F840A00320BDE8F88F46
:103C9000216809F0FE0008612B46284920460A9A4F
:103CA00000F016F9F0BB20684169806900902A464F
:103CB00020460A9900F0A2F940B1206C04283AD1BC
:103CC0002068016841F40071016034E0FEB2B8F18F
:103CD000010F09D02168380A08612A4620460A994E
:103CE00000F08CF90028E8D1206806612A462046B9
:103CF0000A9900F083F90028DFD12068016841F4B7
:103D00008071016000950022594620460A9B00F010
:103D100097F80028B3D1216809F0FF0040F00100B6
:103D2000086100E007E02B46044920460A9A00F0AB
:103D3000CFF80028AAD00120A8E700000200010067
:103D40002DE9F843044600680D46DDE9089701684F
:103D50009846164641F4807101604B4600224FF0B0
:103D600001112046009700F06BF848B12068006808
:103D7000C00502D54FF4007020640320BDE8F8832D
:103D8000216805F0FE0008613B464A461549204679
:103D900000F09EF888B920684169806900903A4631
:103DA0004946204600F02AF948B1206C042804D185
:103DB0002068016841F4007101600120DEE7F5B27E
:103DC000B8F1010F09D02168300A08613A46494626
:103DD000204600F013F90028E7D120680561002093
:103DE000CCE700000200010070B516460D460446FF
:103DF0001EE02046FFF70FFF08B1012070BD681CD0
:103E000016D0FEF7AFFA801BA84200D885B920680B
:103E10004069C04340070BD5002044F8300F2021F3
:103E20006173A073216941F0200121612073E4E7EF
:103E300020684069C0434007DBD4002070BD00000B
:103E40002DE9F047984617460D460446C1F307464C
:103E5000DDF820902AE000BFB8F1FF3F26D0FEF742
:103E600081FAA0EB0901414502D8B8F1000F1DD13C
:103E70002068012E16D0806925EA00000004000C9D
:103E800012D00020B84211D1002044F8300F202178
:103E90006173A073216941F0200121612073012029
:103EA000BDE8F0874069E7E70120EBE72068012ED5
:103EB0000AD0806925EA00000004000C06D000202A
:103EC000B842C9D00020EBE74069F3E70120F7E7EB
:103ED0002DE9F047984616460D4604464FF0000976
:103EE0004FF0200AC1F3074723E020684069C04330
:103EF000400515D42068016841F400710160216813
:103F00006FF480604861C4F8309084F83DA084F874
:103F10003E90216C41F00401216484F83C9021E042
:103F2000701C06D0FEF71EFAA0EB0800B04203D8C2
:103F300016B1012F1FD021E02068012F15D0806914
:103F400025EA00000004000C18D000BF44F8309FA0
:103F500084F80DA084F80E90216941F020012161C0
:103F600084F80C900120BDE8F087406925EA000044
:103F70000004000CEAD12068406901E020688069F3
:103F800025EA00000004000CAFD1ECE72DE9F04178
:103F9000002590460E460446202728E04069C0438D
:103FA000C0060CD454F8301B6FF01000486144F880
:103FB00010596777A577206A2062257714E0FEF70D
:103FC000D1F9A0EB0800B04200D886B9206840695A
:103FD000C04340060BD544F8305F6773A573206972
:103FE00040F02000206125730120BDE8F0812068A9
:103FF0004169C9434906D1D40020F6E770B5164699
:104000000D4604461EE02046FFF705FE08B10120DC
:1040100070BD681C16D0FEF7A5F9801BA84200D819
:1040200085B920684069C04300060BD5002044F8DC
:10403000300F20216173A073216941F020012161BB
:104040002073E4E720684069C0430006DBD4002009
:1040500070BD2DE9F04105468846006803F0DEF9A1
:104060004FF0FF36324603F0C4FD07460C4640468B
:1040700003F0D4F9324603F0BCFD3A46234602F081
:104080008DFD02F059FD2860BDE8F0812DE9FF4764
:1040900006460846316001252849CDE9001505246A
:1040A0002B4675220294D021FEF726FAC8BBDFF812
:1040B0008C9099F80000682833D14FF0000803AFC6
:1040C0008DF80C800097CDE9015401236B22D0219B
:1040D0003068FEF73FFB20BB07208DF80C000097EF
:1040E000CDE9015401231922D0213068FEF732FBBB
:1040F000B8B98DF80C800097CDE9015401231C223A
:10410000D0213068FEF726FB58B98DF80C80009757
:10411000CDE9015401231B22D0213068FEF71AFBA0
:1041200018B1012004B0BDE8F0873046FDF746FE27
:10413000FEF718F9C9F80C000020F3E73000002062
:104140002DE9F04F87B0044605220E2103A88DE823
:10415000070001233B22D0212068FEF7CDF918B1DA
:10416000012007B0BDE8F08FBDF80C0040BA00B2E6
:10417000A080BDF80E1049BA09B2E1808946BDF8A9
:10418000101049BA09B221818846BDF8121049BA07
:104190000FFA81FABDF8141049BA0FB22785BDF89D
:1041A000161049BA0EB26685BDF8181049BA0DB29C
:1041B000A58503F0B5FA6FF00D0B594603F047FDE6
:1041C00003F02CF9C4E90401484603F0A9FA594662
:1041D00003F03DFD03F022F9C4E90601404602F078
:1041E00012FF0022514B02F089FDC4E9080150463C
:1041F00003F096FA4E4903F0B1F94E4903F03AF94B
:10420000A064384603F08CFA4B4F394603F0A6F908
:1042100003F004F9C4E90C01304603F081FA394691
:1042200003F09CF903F0FAF8C4E90E01284603F004
:1042300077FA394603F092F901464048FFF709FF43
:1042400003F0ECF8C4E91001FEF78CF83B4F083F8F
:10425000F968401A03F07CFA394903F07FF9064601
:10426000FEF780F8F860B4F90410B4F90800494387
:1042700000FB001003F054FA02F095FADFF8C48056
:10428000DFF8C490054610F0FF4F0FD0B4F90600D8
:1042900003F046FA294603F061F901F033F903F01F
:1042A000BDF842464B4602F0C5FE01E00020014643
:1042B000C4E91401B4F9080003F032FA0546B4F970
:1042C0000400404203F02CFA294600F0EDFF03F011
:1042D000A5F842464B4602F0ADFEC4E916011B4864
:1042E000007A012811D000200146194A194B02F02A
:1042F000A1FE0022184B02F001FDD4E9182302F0C0
:104300004DFCC4E9180100202BE7304603F086F885
:1043100005460E46786803F081F8D4E9102302F0D0
:1043200087FF2A46334602F085FEDEE70029CC40AF
:104330000000AA43B81E12420000034338000020C8
:1043400000007A44F8C1631ADCA54C409C030020AD
:10435000182D4454FB21094000806640F0B585B01B
:1043600004460522062103A88DE807000123432205
:10437000D0212068FEF7C0F810B1012005B0F0BDD3
:10438000BDF80C0040BA00B22085BDF80E1049BA45
:104390000EB26685BDF8101049BA0DB2A58502F0BF
:1043A00032FE0D4F00223B4602F0A8FCC4E90C018E
:1043B000304602F028FE00223B4602F09FFCC4E992
:1043C0000E01284602F01FFE00223B4602F096FC3A
:1043D000C4E910010020D1E7006060402DE9F04FF2
:1043E00085B000253C4800950195029503958169AB
:1043F00041F010018161816901F01001049181692E
:1044000041F020018161816901F0200104918169FD
:1044100041F004018161816901F004010491816925
:1044200041F0080181618069DFF8B0A000F0080068
:104430004FF460490490002249465046FDF78DFF35
:10444000002241F201112648FDF787FFDFF894B002
:1044500000224EF202215846FDF77FFF4FF4005034
:10446000012402268DE8710069465046FDF780FE62
:104470004FF4404011274FF00308CDE90007CDE984
:10448000024869465046FDF773FE41F201008DE88F
:10449000710069461248FDF76BFE40F202208DE87C
:1044A000710069465846FDF763FECDF80090CDF8DF
:1044B0000C80CDE9017469465846FDF759FE20028B
:1044C000CDE90007CDE9024869460548FDF750FEF1
:1044D00005B0BDE8F08F0000001002400010014060
:1044E00000080140000C014010B596B000240F9464
:1044F00010941194129413941C2108A81494FBF79F
:10450000F8FE20216846FBF7F4FE28482649C0E95A
:1045100000144FF6FF71C0E9024180210461C0E937
:104520000541FEF755FD08B172B6FEE74FF4805025
:104530000F900FA91D48FEF7CFFD08B172B6FEE738
:104540001A48FEF782FF08B172B6FEE7139413A96A
:1045500016481494FEF708FD08B172B6FEE7602015
:10456000CDE908040A940C940D940C2208A90F4874
:104570000E94FEF704FF08B172B6FEE700944FF404
:104580000050CDE904400294019403946946074821
:104590000794FEF7BFFC08B172B6FEE70348FEF7CA
:1045A000A3FE16B010BD0000002C014074010020D5
:1045B00010B58AB0002407941C2168460894FBF7C4
:1045C00098FE16484FF08041C0E900144FF6FF7185
:1045D000C0E90241802104618161FEF736FF08B124
:1045E00072B6FEE7079407A90C480894FEF7BCFCD6
:1045F00008B172B6FEE76020CDE9000402940422FF
:10460000694606480494FEF7BAFE08B172B6FEE7A2
:104610000248FEF769FE0AB010BD0000BC01002090
:1046200010B586B0002417480094019402940394B6
:10463000049413490594016041F61F41C0E9011437
:1046400040F2F311C0E903148461FEF7C1FC08B124
:1046500072B6FEE74FF48050009069460948FEF7B5
:104660003BFD08B172B6FEE7049404A90548059421
:10467000FEF77AFC002801D072B6FEE706B010BD46
:10468000000400400402002010B58AB00024079402
:104690001C2168460894FBF72CFE16481449C0E913
:1046A00000144FF6FF71C0E9024104618461FEF716
:1046B000CCFE08B172B6FEE7079407A90D4808942E
:1046C000FEF752FC08B172B6FEE76020CDE90004A7
:1046D00002940822694607480494FEF750FE08B188
:1046E00072B6FEE70348FEF7FFFD0AB010BD0000FA
:1046F000000800404C020020FEE7FEE770472DE96D
:10470000F04116460546027A0068012A0BD000F0F7
:1047100092FB00B10124686800F08DFB00B1012418
:104720002046BDE8F0814FF40002914201DA0123F6
:1047300000E00023964201DA012700E0002721F083
:104740000042194600F06EFA00B1012426F0004242
:104750003946686800F066FAE0E700002DE9F04F9E
:1047600087B00646DDE911BA0220404CCDE902408F
:104770000120DFF8FCC0CDE900C010250027CDE9FD
:1047800004753C4800F071FA00286CD10022012128
:10479000384800F0E7FA374800F05EFA0A20FDF7E3
:1047A000D5FC4FF008081623062210213148CDF819
:1047B000008000F0FDF9002855D1CDE904756015A1
:1047C000CDE902404FF400592B4DCDE9005929485D
:1047D00053465A462830109900F047FA002842D133
:1047E000244801221146283000F0BCFA2148283024
:1047F00000F032FA0A20FDF7A9FC1E481623062213
:1048000010212830CDF8008000F0D2F900282AD1FC
:1048100018484FF48047214623464A4650300097B7
:1048200001F0D2F878000090124829462B463A460B
:10483000603001F0C9F80F493622503101F12000F3
:10484000FDF744FA0B493622603101F11C00FDF7F7
:104850003DFA08483060283000227060114630462A
:10486000FFF74DFF002007B0BDE8F08F000C0140BE
:10487000000801407C05002000100140704718B579
:10488000044640F6F6100090207A4FF4F573B422F7
:10489000002101F089FE616849B104290BD0082983
:1048A0000DD00C2902D121680968086418BD21685F
:1048B0000968486318BD21680968886318BD2168C4
:1048C0000968C86318BD70B504460020C4E9001229
:1048D00020720A6847201D469062096844F61F60EE
:1048E000C862D4E90001FEF7FDFD29462046BDE877
:1048F0007040AFF300800172FFF7C1BFFDF7F0BF5A
:1049000030B58FB028216846FBF7F3FC14210AA8C4
:10491000FBF7EFFC01210804CDE90010002402940C
:1049200002250491CDE907504FF4E0100990684644
:10493000FEF74AF908B172B6FEE70F20CDE90A0585
:104940004FF48060CDE90C4002210AA80E94FEF7D6
:104950005FF8002801D072B6FEE70FB030BD704797
:104960000148FEF728BC000004020020F0B50268F0
:10497000194B1A4C1A4D4FF08047984205D0B84257
:1049800003D0A04201D0A84203D122F070064A68A9
:104990003243984205D0B84203D0A04201D0A84289
:1049A00003D122F44074CA6822434C6922F0800289
:1049B000224302608A68C2620A688262984201D118
:1049C00009690163012141610169C90703D00169D6
:1049D00021F001010161F0BD002C01400004004004
:1049E0000008004010B501F01F030121046A99403E
:1049F0008C430462016A9A401143016210BD10B5F4
:104A0000846842EA032224F47F440A4322438260FA
:104A100010BD826822F070020A4342F007018160F3
:104A20007047000030B5036A026A22F00102026298
:104A30004268846924F073050C682C4323F0020556
:104A40008B682B430A4DA8420BD123F00805CB6895
:104A500022F440722B434D6923F0040315438A6905
:104A60002A434260846149684163036230BD0000AB
:104A7000002C014030B5026A036A23F01003036280
:104A8000436884690D6824F4E64444EA05248D688B
:104A900022F0200242EA05120B4DA8420ED1CD6849
:104AA00022F0800242EA05124D6923F4406343EA92
:104AB00085038D6922F0400243EA850343608461E7
:104AC00049688163026230BD002C014030B5036A41
:104AD000026A22F4807202624268C46923F400739D
:104AE00024F073050C682C438D6843EA05230C4DB4
:104AF000A8420ED1CD6823F4006343EA05234D6933
:104B000022F4405242EA05128D6923F4806342EA9E
:104B100005124260C4614968C163036230BD000090
:104B2000002C014030B5046A026A22F4805202620D
:104B30004268C3690D6823F4E64343EA05238D68A0
:104B400024F4005444EA0534064DA84204D14D69CA
:104B500022F4804242EA85124260C36149680164DE
:104B6000046230BD002C014010B5036A046A24F0D1
:104B700001040462846924F0F00444EA021423F07E
:104B80000A020A438461026210BD10B5036A046A16
:104B900024F010040462846923F0A00324F4704418
:104BA00044EA023243EA01118261016210BD000051
:104BB0002DE9F04115460F461C4680464FF4E07241
:104BC0000021069E00F049F9002827D10220FDF7B8
:104BD000BDFA334622462946404600F06BF80028CD
:104BE0001CD10220FDF7B2FA3946404600F07FF8AA
:104BF000002813D10220FDF7A9FA094A7021404686
:104C000000F02BF9002809D10220FDF79FFA404659
:104C1000BDE8F0411422112100F01FB9BDE8F08178
:104C200024080DC870B51546044600F050F8294612
:104C3000204600F09BF8002804D12046BDE87040D3
:104C400000F0EAB870BDC17E09B1012200E0002287
:104C5000018B4069FDF781BBC17E21B10022018B30
:104C60004069FDF77ABB0122F9E72DE9F0410446DE
:104C70000DF11808DDE9095098E880500B9E84E892
:104C80008E00A4F810C0C4F814E0258300F00300DF
:104C9000A0760125E576002020776077606284F8B1
:104CA00020003146204600F022F8002800D0E5839D
:104CB000BDE8F08101F01F0102F01F0241EA02216C
:104CC00003F00F0241EA0242102100F0C6B809B118
:104CD000012200E0002280F82010017F09B122B1FA
:104CE0000022018AC068FDF738BB0122F9E770B5E0
:104CF0000C46054610291CD008DC012C21D0022CC2
:104D00001DD0042C19D0082C09D114E0202C0ED071
:104D1000402C0AD0802C06D0B4F5807F01D0012031
:104D200070BD00200EE001200CE002200AE003200C
:104D300008E0042006E0052004E0062002E0072049
:104D400000E008204FF0805141EA006040F48030DC
:104D500040F035026C21284600F07FF80028DFD1B2
:104D6000EC8370BDC17602777047000070B50D46C8
:104D700004001FD015F1FF4F1CD2E08BC82148431F
:104D800018D002F0E5FC294602F02AFD1F4902F086
:104D9000E5FB02F0A5FC010000D101211C480268DE
:104DA0001C48B2FBF0F000B90120B2FBF0F2401E4B
:104DB0008A4201D2012070BDB2FBF1F101B901219B
:104DC0006268126890626068491E0068C16260682B
:104DD000C160A06860B1042810D0082801F1010169
:104DE0004FEA5100616809680ED00864002070BD68
:104DF000491C4808616809684863F7E7491C480886
:104E0000616809688863F1E7C863EFE700007042F2
:104E10001800002040420F0010B50446FFF71CFFA9
:104E2000D4E90101FEF75EFB00284FF0010001D13B
:104E30006077002010BD10B50446407F002808D0E0
:104E40002046FFF700FFD4E90101FEF799FB08B106
:104E5000012010BD0020607710BD2DE9FC41052325
:104E60008DF80030837E41F0800103F003038DF85C
:104E700001308DF80210110E8DF80310110C8DF811
:104E80000410110A8DF8051007258DF80620002161
:104E90006E460A462F46B45C002304F0010CBCEBBE
:104EA000D11F02D087EA410100E049005B1C640881
:104EB000DBB2C9B2082BF0D3521CD2B2AA42EAD359
:104EC0008DF807100068642308223146FEF714FEAF
:104ED000BDE8FC8110B5406A0021C185C184FEF7A0
:104EE000CFFB10BD70B5446A2068406994F841104A
:104EF000C0F3C0100025212904D118B1E584204653
:104F000000F062F82068406994F84210C0F3801005
:104F1000222904D118B1E585204600F02EF8606CF6
:104F200040F0100060642046FEF7AAFB70BD10B58B
:104F30000146406A09680968890616D40021C184BF
:104F40000168143151E8002F22F0800241E800236B
:104F5000002BF5D101680C3151E8002F42F04002DE
:104F600041E80023002BF5D110BDFEF751FE10BD26
:104F700010B5406AFEF74DFE10BD01680C3151E8D6
:104F8000002F22F4907241E80023002BF5D1016834
:104F9000143151E8002F22F0010241E80023002BD8
:104FA000F5D1016B012909D101680C3151E8002FBD
:104FB00022F0100241E80023002BF5D1202180F8D7
:104FC000421000210163704701680C3151E8002F45
:104FD00022F0C00241E80023002BF5D1202180F807
:104FE0004110704708B590F84210222901D00220E4
:104FF00008BD82684FF480539A4201D1016921B102
:10500000816A9A421BD04AB10AE00268816A5268FA
:10501000C2F308020A80816A891C08E0026972B141
:105020000268526802F07F020A70816A491C81623C
:10503000C18D491E0904090CC18503D01BE002681B
:105040005268F1E70168CA6822F02002CA6001686C
:10505000CA6822F48072CA6001684A6922F00102BB
:105060004A61202180F8421000214163026B012A2D
:1050700003D0FEF721FD002008BD016301680C315B
:1050800051E8002F22F0100241E80023002BF5D157
:1050900001680A68D20602D50A6849680091818DC4
:1050A000FEF7EDFAE7E7000070B504460068016915
:1050B000E26821F44051114301612169A06808436D
:1050C000616908432168CA6841F20C639A4302434C
:1050D000CA6020684169A26921F4407111434161AD
:1050E0001E492068884202D1FDF738FD01E0FDF736
:1050F00025FD00EBC00101EB001260686421800017
:10510000B2FBF0F3B3FBF1F36FF018067343B2FB9D
:10511000F0F5B2FBF0F605EB8305322303EB051542
:10512000B5FBF1F5B6FBF1F605F0F00505EB06155C
:10513000B2FBF0F6B2FBF0F0B0FBF1F06FF018024A
:10514000504306EB800003EB0010B0FBF1F0216848
:1051500000F00F002844886070BD00000038014056
:1051600081628285C28500214164222180F842103B
:10517000016921B10168CA6842F48072CA6001689D
:105180004A6942F001024A610068C16841F02001A9
:10519000C160002070472DE9F843984617460D4638
:1051A0000446089E24E0701C22D0FDF7DBF8A0EB3B
:1051B0000800B0421AD8CEB12068C168490717D597
:1051C000802D15D0402D13D00168C94309070FD495
:1051D00001680025406800902046FFF7CEFE0820B9
:1051E000606484F840500120BDE8F8830320FBE7A9
:1051F0002068006835EA000004D00020B842D2D010
:105200000020F1E70120F9E70148FEF73BBA000072
:1052100024030020FEE7490050EAC12018BF042003
:105220004A0D18BF40F0010040F2FF72B2EB515F2F
:1052300008BF40F00200012808BF05207047410068
:10524000080218BF04200A0E18BF40F001004FF0FA
:105250007F4232EA010108BF40F00200012808BF86
:10526000052070470907090E002804DB00F1E02043
:1052700080F80014704700F00F0000F1E02080F883
:10528000141D7047012102F0E2BC02F0F3B86FF088
:105290005E01080702F0DBBC30380A2801D2012089
:1052A00070470020704700002DE9F0474FF068423A
:1052B00002EB40030C460546B3F1654F3CBF02EBE1
:1052C0004102B2F1654F7CD2C0F3C753C1F3C7525C
:1052D0009A1A1B2A06DD10F0004F14BF7648774853
:1052E000BDE8F08712F11A0F17DA11F0004F06D05F
:1052F00010F0004F0CBF72487248BDE8F08721469D
:10530000284602F02BF90446FFF799FF042808BF4E
:10531000FFF7BDFF2046BDE8F0874200B2EB410F2A
:1053200025D910F0004F19BF674F684E684F694E7E
:10533000224685F0004415460A4680F0004110469A
:105340000A1A5200B2F1807F40D248406249DFF829
:105350008CA110F0004F18D04FF03F48384602F0B3
:105360009DFB07465146304602F098FB17E011F0CE
:10537000004F04BF00263746E2D010F0004F19BF9F
:10538000574F584E584F594EDAE74FF07C58384631
:1053900002F070F807465146304602F06BF80646B8
:1053A0004146284602F01CFA214602F063F8824684
:1053B0002146404602F014FA294602F0DDFA514631
:1053C00000E037E002F0CAF8044604E0214628462F
:1053D00002F0C4F80446014602F002FA804644494D
:1053E00002F0FEF9434902F045F8414602F0F8F9AF
:1053F000414902F03FF8414602F0F2F93F4902F01C
:1054000039F8414602F0ECF93D4902F033F805461F
:105410004146204602F0E4F9294602F0E1F931461E
:1054200002F028F8214602F025F83946BDE8F04799
:1054300002F020B84FF07F42B2EB400F28BFB2EB32
:10544000410F03D2BDE8F047FFF71FBF40EA010359
:105450005B0008BF44F0FF410AD0B2EB400F08BF29
:10546000B2EB410F06D125F0804024F08041054683
:105470000C4629E7B2EB400F12BF5FEA410245F04C
:10548000FF4004F000413FF41FAF4A0092EA40039E
:105490003FF51AAF002AACBF4FF09F464FF03E5683
:1054A000314602F09DF905463146204602F098F952
:1054B00004462846214607E7DB0FC9BFDB0FC93F7B
:1054C000DB0F4940DB0F49C00000C9BF22AAFDB96C
:1054D0000000C93F22AAFD390060ED3EC30ACE3765
:1054E000000049C022AA7DBA0000494022AA7D3AA4
:1054F0002DAD65BD8FB8D53D0FB511BE61C84C3E11
:10550000A8AAAABE2DE9F041054604464FF00E4078
:1055100000EB4400B0F1145F76D24FF0FE40B0EBE8
:10552000440F24BF002637460CD214F0004F19BF99
:10553000454F464E464F474E2146474802F00EF82B
:10554000054604464FF0FC40B0EB440F2CD24349D3
:10555000DFF80C8114F0004F0AD04FF03F4438467A
:1055600002F09CFA07464146304602F097FA09E0FD
:105570004FF07C54384601F07DFF074641463046E7
:1055800001F078FF06462146284602F029F94FF03F
:105590007E5101F06FFF80462146284602F07EFAD8
:1055A000414601F0DBFF05462946084602F018F99E
:1055B00080462C4902F014F92B4901F05BFF41466B
:1055C00002F00EF9294901F055FF414602F008F9B1
:1055D000274901F04FFF414602F002F9254901F049
:1055E00049FF04464146284602F0FAF8214602F0F7
:1055F000F7F8314601F03EFF294601F03BFF3946FE
:10560000BDE8F04101F036BF4FF0E440B0EB440F8D
:1056100009D92846FFF713FE042808BFFFF737FE15
:105620002846BDE8F0814FF07F40B0EB440F04D234
:105630002046BDE8F041FFF725BE14F0004F14BF2F
:105640000D480E48BDE8F0810000C9BF22AAFDB98F
:105650000000C93F22AAFD39000080BF0060ED3E76
:10566000C30ACE372DAD65BD8FB8D53D0FB511BE80
:1056700061C84C3EA8AAAABEDB0FC9BFDB0FC93F59
:1056800038B504460179006804230A2200F02AFB99
:10569000002820D000208DF8000021796B4684225C
:1056A000206800F056FA002815D09DF800008422EA
:1056B00020F010038DF800302179206800F012FBF3
:1056C000002808D0217901230B22206800F00AFB72
:1056D000002800D0012038BD38B5044600208DF8E0
:1056E000000021796B468922206800F032FA0028F8
:1056F00044D09DF80000892240F001038DF800306D
:105700002179206800F0EEFA002837D021790023B3
:105710008822206800F0E6FA0546217901238022DC
:10572000206800F0DFFA054021790123FF2220687C
:1057300000F0D8FA0540002321791A46206800F0CD
:10574000D1FA054021790E4B9122206800F001FA30
:105750000540217901230022206800F0C3FA0540AA
:1057600021790023FF22206800F0BCFA054021794E
:1057700000238022206800F0B5FA284038BD0000E0
:105780002D0000202DE9F041064600200870054656
:105790000C463046FAF78EFDC0B200216FF02F03A1
:1057A0000BE0725C2D2A11D0277807EB870703EBFB
:1057B00047073A442270491CC9B28142F1D315B15E
:1057C0002078404220700120BDE8F0810DB100201A
:1057D000FAE70125EFE72DE9FE4300250F468DF896
:1057E00004500295994690460446017900680123C9
:1057F000802200F077FA064621790123FF222068F3
:1058000000F070FA0640002321791A46206800F063
:1058100069FA064021790623FF22206800F062FA27
:105820000640217901AB8322206800F092F90640FE
:105830009DF80400217940F004038322206800F0E1
:1058400051FA064021790723FF22206800F04AFA26
:105850000640217901238122206800F043FA0640A6
:10586000217901238022206800F03CFA00EA060139
:105870000E007DD021796B239422206800F032FA4B
:10588000304006007CD08DF800502179002383221F
:10589000206800F027FA002872D021796B46832215
:1058A000206800F056F900286AD09DF80000002812
:1058B000F3D0217901238322206800F013FA002815
:1058C0005ED0217902AB9022206800F0FDF800281C
:1058D00056D002980023C0F3062038700298812227
:1058E000C0F3C03188F800102179206800F0FAF97F
:1058F00000EA060521790623FF22206800F0F2F96C
:105900000540217901AB8322206800F022F905408F
:105910009DF80400217900F0FB038322206800F049
:10592000E1F9054021790123FF22206800F0DAF92E
:105930000540217901230022206800F0D3F900EA14
:10594000050621790023FF22206800F0CBF900EA48
:105950000605217900238022206800F0C3F900EABF
:1059600005060620009021794B46B022206800E011
:1059700006E000F038F8002800D03046BDE8FE838D
:105980000020FBE7F8B500200C4D0D4E0D4F0090A8
:1059900002E00098401C00902868B0FBF6F001F08F
:1059A000D7FE394601F01CFF0446009801F0D0FEF6
:1059B000214601F0E1FEECD3F8BD00001800002004
:1059C00040420F000000A03F10B50446029821603D
:1059D000A280A360A081204600F024F92046BDE803
:1059E000104000F015B92DE9F0411E4617460C464F
:1059F0008046069D00F029F96006010E404600F041
:105A000092F9002828D03946404600F08CF9002849
:105A100022D0404600F019F9012000EB4400C1B249
:105A2000404600F080F9002816D000246F1E06E0E2
:105A30000121404600F0BAF83055641CE4B2BC4283
:105A4000F6DB0021404600F0B1F8711901F8010CB5
:105A5000404600F00DF90120BDE8F0812DE9F0414C
:105A60001E4614460D46074600F0EFF86806010E84
:105A7000384600F058F9002824D02146384600F076
:105A800052F900281ED0384600F0DFF8012000EB64
:105A90004500C1B2384600F046F9002812D0012175
:105AA000384600F083F860F307040021384600F020
:105AB0007DF860F30F24384600F0DAF8A0B240BA5F
:105AC00030800120BDE8F0812DE9F0411E461446EA
:105AD0000D46074600F0B9F86806010E384600F09A
